:020000040000FA
:100000000C9462000C948A000C948A000C948A0070
:100010000C948A000C948A000C948A000C948A0038
:100020000C948A000C948A000C948A000C948A0028
:100030000C948A000C948A000C948A000C948A0018
:100040000C94C3060C948A000C9491060C946B06D5
:100050000C948A000C948A000C948A000C948A00F8
:100060000C940D070C948A00000000002400270067
:100070002A0000000000250028002B0000000008D6
:10008000000201000003040700000000000000005F
:1000900000000000230026002900040404040404D6
:1000A0000404020202020202030303030303010227
:1000B00004081020408001020408102001020408F6
:1000C0001020710811241FBECFEFD8E0DEBFCDBFD6
:1000D00011E0A0E0B1E0E8E5FBE102C005900D927F
:1000E000AE39B107D9F723E0AEE9B1E001C01D9206
:1000F000A731B207E1F710E0C2E6D0E004C02197D3
:10010000FE010E94A40DC136D107C9F70E94BA08AA
:100110000C94AA0D0C94000008950895AF92BF921C
:10012000CF92DF92EF92FF920F931F93CF93DF93C3
:100130006C017B018B01040F151FEB015E01AE18F2
:10014000BF08C017D10759F06991D601ED91FC9114
:100150000190F081E02DC6010995892B79F7C50141
:10016000DF91CF911F910F91FF90EF90DF90CF9093
:10017000BF90AF900895FC01538D448D252F30E042
:10018000842F90E0821B930B541710F0CF960895A4
:1001900001970895FC01918D828D981761F0A28DD1
:1001A000AE0FBF2FB11D5D968C91928D9F5F9F7397
:1001B000928F90E008958FEF9FEF0895FC01918D4D
:1001C000828D981731F0828DE80FF11D858D90E0BA
:1001D00008958FEF9FEF0895FC01918D228D892F57
:1001E00090E0805C9F4F821B91098F73992708953F
:1001F00081E692E00E94EC0021E0892B09F420E0E6
:10020000822F089580E090E0892B29F00E94F80069
:1002100081110C9400000895FC01A48DA80FB92F42
:10022000B11DA35ABF4F2C91848D90E001968F731E
:100230009927848FA689B7892C93A089B1898C913D
:10024000837080648C93938D848D981306C002888C
:10025000F389E02D80818F7D80830895EF92FF9256
:100260000F931F93CF93DF93EC0181E0888F9B8DD9
:100270008C8D98131AC0E889F989808185FF15C093
:100280009FB7F894EE89FF896083E889F9898081B6
:100290008370806480839FBF81E090E0DF91CF9185
:1002A0001F910F91FF90EF900895F62E0B8D10E0A7
:1002B0000F5F1F4F0F731127E02E8C8D8E110CC016
:1002C0000FB607FCFACFE889F989808185FFF5CF61
:1002D000CE010E940C01F1CFEB8DEC0FFD2FF11D33
:1002E000E35AFF4FF0829FB7F8940B8FEA89FB899E
:1002F00080818062CFCFCF93DF93EC01888D8823FC
:10030000B9F0AA89BB89E889F9898C9185FD03C078
:10031000808186FD0DC00FB607FCF7CF8C9185FF5D
:10032000F2CF808185FFEDCFCE010E940C01E9CF95
:10033000DF91CF91089590E0FC01E458FF4F2491A4
:10034000FC01E255FF4F3491FC01E656FF4FE4916A
:10035000EE23C9F0222339F0233001F1A8F4213033
:1003600019F1223029F1F0E0EE0FFF1FEE58FF4F98
:10037000A591B4918FB7F894EC91611126C0309596
:100380003E233C938FBF08952730A9F02830C9F051
:10039000243049F7809180008F7D03C080918000D8
:1003A0008F7780938000DFCF84B58F7784BDDBCFDC
:1003B00084B58F7DFBCF8091B0008F778093B000A4
:1003C000D2CF8091B0008F7DF9CF3E2BDACFCF9383
:1003D000DF9390E0FC01E255FF4F249186569F4F3A
:1003E000FC0184918823D1F090E0880F991FFC01D3
:1003F000E859FF4FA591B491FC01EE58FF4FC5910C
:10040000D49161110EC09FB7F8948C91E22FE095C2
:100410008E238C932881E223E8839FBFDF91CF91C5
:1004200008958FB7F894EC91E22BEC938FBFF6CF41
:100430003FB7F8948091550290915602A0915702CF
:10044000B091580226B5A89B05C02F3F19F0019620
:10045000A11DB11D3FBFBA2FA92F982F8827BC011E
:10046000CD01620F711D811D911D42E0660F771F46
:10047000881F991F4A95D1F708958F929F92AF9246
:10048000BF92CF92DF92EF92FF924B015C010E94EC
:1004900018026B017C010E9418026C197D098E09FB
:1004A0009F09683E734081059105A8F321E0821AF7
:1004B0009108A108B10888EEC80E83E0D81EE11C9F
:1004C000F11C81149104A104B10429F7FF90EF906D
:1004D000DF90CF90BF90AF909F908F900895089538
:1004E0002091DF01260F3327331F21323105ECF431
:1004F00020912802FC0190E080E0243069F082E045
:100500000895A091DF012191AC0141545E4FA40FE9
:10051000B52FB11D2C930196861798F38091DF01BA
:10052000680F6093DF0180E0089581E008951092E4
:10053000280281E0809327021092020261E082E1AA
:100540000E949B0161E083E10E949B01E9EBF0E0E6
:1005500080818E7F808380818D7F808388E48093FB
:10056000B80085E48093BC000895CF93DF9391E0B9
:100570009093BE018823B9F0C091B800D091BA0021
:100580008091BC008A7B8093BC0060E082E10E9485
:100590009B0160E083E10E949B010E949702D0933F
:1005A000BA00C093B800DF91CF9108950895E0910B
:1005B000600280915F02E81730F4F0E0E256FE4FEF
:1005C000808190E008958FEF9FEF089590916002F1
:1005D00080915F022FEF3FEF981748F4E92FF0E08A
:1005E000E256FE4F208130E09F5F90936002C90188
:1005F000089580915F0290916002891B990B089584
:10060000CF92DF92EF92FF920F931F93CF93DF93DE
:100610007C01CB018A0120912E02222389F0EB017B
:100620006B01C40ED51ECC15DD0569F06991D701AB
:10063000ED91FC910190F081E02DC7010995F3CF78
:10064000642F0E947002C801DF91CF911F910F911A
:10065000FF90EF90DF90CF900895CF93DF931F929C
:10066000CDB7DEB7698320912E022223F9F02091C5
:100670005D02203258F021E030E0FC013383228318
:1006800090E080E00F90DF91CF91089580915E021D
:10069000E82FF0E0E15DFD4F998190838F5F8093BB
:1006A0005E0280935D0281E090E0ECCF61E0CE01DC
:1006B00001960E947002F7CFCF92DF92EF92FF92E5
:1006C0000F931F93CF93DF93FC01C48121E020930C
:1006D0002E02C0934F0210925E0210925D0284853A
:1006E000682B8EEF92E00E942D03D0915D02D132F3
:1006F00008F092C00E9418026B017C0180912802D0
:10070000811165C082E08093280281E080932702F6
:100710008FEF8093260210922502D0932402AFE23D
:10072000B2E0E4E0F2E080E0D81385C0109203026A
:1007300080910302CC0FC82BC09303028091020268
:10074000813009F07CC0109202020E9418026B01F5
:100750007C01809103028093BB0080912A029091DA
:100760002B02A0912C02B0912D02892B8A2B8B2B6E
:1007700099F00E94180200912A0210912B022091F8
:100780002C0230912D026C197D098E099F090617E4
:10079000170728073907E0F18091BC0083FDD9CF06
:1007A00085EC8093BC000E9418026B017C01809153
:1007B0002802823009F445C0809126028F3F61F102
:1007C00080912602803241F18091260225C08091DD
:1007D0002A0290912B02A0912C02B0912D02892B1C
:1007E0008A2B8B2B09F48ACF0E94180200912A02CF
:1007F00010912B0220912C0230912D026C197D0951
:100800008E099F09061717072807390708F076CFC2
:10081000809129020E94B50210925E0210925D0240
:1008200010922E02DF91CF911F910F91FF90EF90C8
:10083000DF90CF9008959D9191938F5F75CF85EE56
:10084000B0CF80912A0290912B02A0912C02B091FE
:100850002D02892B8A2B8B2B09F4A9CF0E94180219
:1008600000912A0210912B0220912C0230912D022E
:100870006C197D098E099F09061717072807390784
:1008800008F095CFC5CF90E080E008950F931F93B7
:10089000CF938C01C62F0E945C036C2F6460C8014B
:1008A0000E945C036C2F6B7FC8010E945C0383EC89
:1008B00090E00197F1F7CF911F910F9108950F9359
:1008C0001F93CF93DF938C01D62FC42F607F642BAF
:1008D0000E94460480E1D89FB00111246C2BC8010E
:1008E000DF91CF911F910F910C944604CF93DF932A
:1008F000CDB7DEB728970FB6F894DEBF0FBECDBFD9
:1009000098E0E0E0F1E0DE01119601900D929A95F9
:10091000E1F790911203981708F48FEF90E0880F99
:10092000991F21E030E02C0F3D1F820F931FFC0127
:100930006081606840E08AE093E028960FB6F89402
:10094000DEBF0FBECDBFDF91CF910C945F0440E0BE
:1009500061E08AE093E00E945F048BE39FE10197EE
:10096000F1F780911303882319F080E00C9476044A
:10097000089541E00E945F0481E090E00895FB014A
:1009800001900020E9F73197AF01461B570BDC01BE
:10099000ED91FC910280F381E02D09948F929F925A
:1009A000AF92BF92EF92FF920F931F93CF93DF937B
:1009B000CDB7DEB7A1970FB6F894DEBF0FBECDBF9F
:1009C0007C01FA01CB0119A2223008F42AE08E0141
:1009D0000F5D1F4F822E912CB12CA12CBF01A501C0
:1009E00094010E944F0DF901CA016A300CF5605D57
:1009F000D8016E938D01232B242B252B79F790E0C2
:100A000080E0109721F0BD01C7010E94BF04A196AC
:100A10000FB6F894DEBF0FBECDBFDF91CF911F910F
:100A20000F91FF90EF90BF90AF909F908F9008959F
:100A3000695CDECFCF92DF92EF92FF92AB01BC01F7
:100A400077FF1AC06A017C0141E06DE28AE093E021
:100A50000E945F0444275527BA014C195D096E09AD
:100A60007F092AE08AE093E00E94CE040196FF907D
:100A7000EF90DF90CF9008952AE08AE093E0FF9016
:100A8000EF90DF90CF900C94CE042F923F924F9234
:100A90005F926F927F928F929F92AF92BF92CF920E
:100AA000DF92EF92FF921F93CF93DF93EC016A01E5
:100AB0007B01722EAB019601CB01B6010E94360D6F
:100AC00068E371E0811126C046015701E894B7F848
:100AD0002FEF3FEF4FE75FE7C501B4010E94360DEE
:100AE00081110CC02FEF3FEF4FE75FE7C501B40165
:100AF0000E946C0B6CE371E0181664F02FEF3FEF6F
:100B00004FE75FE4C701B6010E94C40C1816B4F4A5
:100B100060E471E0CE01DF91CF911F91FF90EF90E3
:100B2000DF90CF90BF90AF909F908F907F906F900D
:100B30005F904F903F902F900C94BF042FEF3FEFAA
:100B40004FE75FECC701B6010E946C0B87FDE0CF59
:100B500020E030E0A901C701B6010E946C0B312CE6
:100B6000212C87FF0DC0E881F9810190F081E02DF3
:100B70006DE2CE0109951C01F7FAF094F7F8F094B4
:100B800010E060E070E080E09FE3711641F020E04B
:100B900030E040E251E40E94710B1F5FF6CFA701E5
:100BA00096010E94000B2B013C010E94E30B4B01BC
:100BB0005C012AE0BC01A401CE010E94CE047C01AC
:100BC000E20CF31C1123E1F1C501B4010E94120CE7
:100BD0009B01AC01C301B2010E94FF0A4B015C0101
:100BE000E881F9810190F081E02D6EE2CE01099556
:100BF000E80EF91E115020F120E030E040E251E40F
:100C0000C501B4010E94C90C2B013C010E94E30BF9
:100C10004B01B12CA12C2AE0B501A401CE010E9408
:100C2000CE04E80EF91EC501B4010E94120C9B010E
:100C3000AC01C301B2010E94FF0A4B015C01DACF93
:100C4000C701DF91CF911F91FF90EF90DF90CF9080
:100C5000BF90AF909F908F907F906F905F904F90DC
:100C60003F902F90089585ED8093BC0080912A02DB
:100C700090912B02A0912C02B0912D020796A11DFC
:100C8000B11D23E0B695A795979587952A95D1F73D
:100C90002091BC0024FD03C01092280208954091C9
:100CA0002A0250912B0260912C0270912D02452B4B
:100CB000462B472B69F30097A105B10541F025E3C9
:100CC0002A95F1F700000197A109B109E1CF8091C0
:100CD00029020C94B5021F920F920FB60F921124A5
:100CE0002F933F934F935F936F937F938F939F9334
:100CF000AF93BF93EF93FF9381E692E00E940C01C4
:100D0000FF91EF91BF91AF919F918F917F916F91E3
:100D10005F914F913F912F910F900FBE0F901F90B9
:100D200018951F920F920FB60F9211242F938F9345
:100D30009F93EF93FF93E0917102F0917202808193
:100D4000E0917702F091780282FD1BC09081809142
:100D50007A028F5F8F7320917B02821741F0E091BE
:100D60007A02F0E0EF59FD4F958F80937A02FF9160
:100D7000EF919F918F912F910F900FBE0F901F9029
:100D800018958081F4CF1F920F920FB60F92112405
:100D90002F933F938F939F93AF93BF938091510273
:100DA00090915202A0915302B0915402309150029E
:100DB00023E0230F2D3758F50196A11DB11D209377
:100DC00050028093510290935202A0935302B09329
:100DD00054028091550290915602A0915702B09111
:100DE00058020196A11DB11D8093550290935602A1
:100DF000A0935702B0935802BF91AF919F918F91EA
:100E00003F912F910F900FBE0F901F90189526E8DD
:100E1000230F0296A11DB11DD2CF1F920F920FB6C4
:100E20000F9211242F933F934F935F936F937F9370
:100E30008F939F93AF93BF93EF93FF938091B900EC
:100E4000887F803609F44AC0F0F5883209F4A7C0DB
:100E500018F5803109F49BC0B8F4882309F4F9C06F
:100E6000883009F494C0FF91EF91BF91AF919F91A9
:100E70008F917F916F915F914F913F912F910F9043
:100E80000FBE0F901F901895883109F488C08032EA
:100E900051F78093260214C0803409F49DC040F4B9
:100EA0008033B9F38833F9F68093260285ECB0C01D
:100EB000803509F485C0883509F496C0883499F6E0
:100EC0000E943306D0CF883909F48CC038F58837B2
:100ED00029F050F4883611F0803729F683E08093AA
:100EE00028021092010257C0883809F47BC080396B
:100EF00019F0803809F0B7CF80910102803208F0F4
:100F000071C0E091010281E08E0F80930102809117
:100F1000BB00F0E0EF51FE4F80833DC0803B39F0D5
:100F2000E0F4803A09F479C0883A09F09CCF84E073
:100F3000809328021092E0011092DF01E0915B02A1
:100F4000F0915C0209958091DF0181110FC081E071
:100F50008093DF011092BF0109C0803C09F4A6CF45
:100F6000883C09F4A3CF883B09F07DCFE091E001F4
:100F700081E08E0F8093E001F0E0E154FE4F80812C
:100F80008093BB009091E0018091DF0129C08091A6
:100F900003028093BB0085EC8093BC0064CF9091EA
:100FA000250280912402981758F5E091250281E0EE
:100FB0008E0F80932502F0E0EC5FFD4F8081E9CF3A
:100FC000E091250281E08E0F809325028091BB0085
:100FD000F0E0EC5FFD4F8083909125028091240228
:100FE0009817C8F285E8D8CFE091250281E08E0FEE
:100FF000809325028091BB00F0E0EC5FFD4F808381
:101000008091270281115CCF81E08093020284EA03
:101010008093BC001092280226CF85EC8093BC0000
:101020001092280280910102803230F4E091010296
:10103000F0E0EF51FE4F10826091010270E0E0910C
:101040005902F0915A0281EE91E009951092010245
:101050000ACF1092260234CFCF92DF92EF92FF9206
:101060000F931F93E82FF92F05C001501109210993
:10107000310961F1908196239417B9F305C00150AD
:1010800011092109310911F1908196239413F7CFA9
:10109000C12CD12CE12CF12C0AC08FEFC81AD80A30
:1010A000E80AF80A0C151D052E053F0579F0808128
:1010B0008623841791F36C2D7D2D8E2D9F2D1F91EE
:1010C0000F91FF90EF90DF90CF90089560E070E077
:1010D00080E090E01F910F91FF90EF90DF90CF9014
:1010E0000895E1E6F2E01382128288EE93E0A0E038
:1010F000B0E084839583A683B7832CE031E031830D
:10110000208325EC30E03587248724EC30E03787D6
:10111000268720EC30E0318B208B21EC30E0338BC4
:10112000228B22EC30E0358B248B26EC30E0378BA1
:10113000268B118E128E138E148EEEEFF2E0138238
:10114000128284839583A683B7838EE191E0918395
:101150008083EAE0F3E01382128280E391E09183DE
:101160008083118687E2848384E1828784E0838799
:1011700014860895789484B5826084BD84B58160B6
:1011800084BD85B5826085BD85B5816085BD809152
:101190006E00816080936E001092810080918100CA
:1011A00082608093810080918100816080938100C2
:1011B000809180008160809380008091B100846084
:1011C0008093B1008091B00081608093B0008091E5
:1011D0007A00846080937A0080917A0082608093A4
:1011E0007A0080917A00816080937A0080917A0001
:1011F000806880937A001092C10010926002109271
:101200005F0210925E0210925D020E9497028CE8CB
:1012100090E090935C0280935B028DE890E0909365
:101220005A028093590210920F0380911503823065
:1012300018F098E090930F038093120362E370E03C
:1012400080E090E00E943D02609116038AE093E006
:101250000E945C0368EE73E080E090E00E943D0233
:1012600060E38AE093E00E944604CBE4D6E4CE013A
:101270000197F1F760E38AE093E00E94460421972A
:10128000F1F760E38AE093E00E94460483E592E090
:101290000197F1F760E28AE093E00E9446046091D2
:1012A0000F03606240E08AE093E00E945F0484E004
:1012B0008093100340E06CE08AE093E00E945F04BA
:1012C0000E94A704C2E0C093110340E066E08AE0F8
:1012D00093E00E945F0440E062E08AE093E00E94B5
:1012E0005F048BE39FE10197F1F7E0917102F091C8
:1012F0007202C083E0916D02F0916E021082E09163
:101300006F02F09170028FEC808310927902E0916D
:101310007502F091760286E08083E0917302F0918D
:101320007402808180618083E0917302F091740285
:10133000808188608083E0917302F09174028081E3
:1013400080688083E0917302F091740280818F7DC8
:10135000808361E087E00E94E70161E087E00E940E
:101360009B012AE3822E912CA12CB12C30E0232E5C
:1013700030E0332E28E02093160360E08AE093E00B
:101380000E945C0361E08DE00E94E70183E090E051
:101390000197F1F761E08DE00E949B0183E290E00C
:1013A0000197F1F760E08DE00E949B0160E08CE026
:1013B0000E94E701EAEBF0E06491E6EAF0E0849154
:1013C000E82FF0E0EE0FFF1FE057FF4F859194915B
:1013D00000E412E42FE030E0462F0E942C08611553
:1013E00071058105910529F06F5F7F4F8F4F9F4FEA
:1013F0009F70A50194010E94710D29013A01CA0153
:10140000B9010E94140C6B017C0164E471E081E677
:1014100092E00E94BF0422E0B701A60181E692E0BB
:101420000E94450562E571E081E692E00E94BF04FA
:1014300064E571E081E692E00E94BF04A701960195
:1014400060E070E088EC92E40E94FF0A6B017C018E
:1014500020E030E040EA52E40E94C40C87FF41C023
:1014600020E030E0A901C701B6010E946C0B1816FC
:1014700074F180E00E94760467E571E08AE093E011
:101480000E94BF0481E00E94760465E971E08AE071
:1014900093E00E94BF04C301B2010E941A056AE9E9
:1014A00071E08AE093E00E94BF0464E670E080E0AF
:1014B00090E00E943D022114310409F45BCF0E94A8
:1014C000F800882309F456CF0E94000053CF20E093
:1014D00030E048EC52E4C701B6010E946C0B811168
:1014E00071C0C8E7D0E080E00E94760468E671E051
:1014F0008AE093E00E94BF0481E00E947604CE015E
:101500006CE370E00E943B0D24EC26038001279FD2
:10151000100D11240C0F1D1F072E000C880B990BAA
:101520000E941A0565E771E08AE093E00E94BF041B
:10153000B801110F880B990B0E941A0564E571E040
:101540008AE093E00E94BF0468EE73E080E090E0E0
:101550000E943D02219738F6C0E1D7E260E087E0C3
:101560000E949B0169E771E08AE093E00E94BF045A
:10157000E8E0E093160360E08AE093E00E945C03F9
:1015800064E670E080E090E00E943D0261E087E068
:101590000E949B010E94A7041092160360E08AE05B
:1015A00093E00E945C0364E670E080E090E00E94BB
:1015B0003D02219799F6C12CD12C88ECE82E82E4CB
:1015C000F82E0AC020E030E0A901C701B6010E9450
:1015D000C40C18160CF056CF80E00E94760464E824
:1015E00071E08AE093E00E94BF0422E0B701A60107
:1015F0008AE093E00E9445056BE871E03FCF5058C8
:10160000BB27AA270E94170B0C948A0C0E947C0C03
:1016100038F00E94830C20F039F49F3F19F426F42F
:101620000C94790C0EF4E095E7FB0C94730CE92F05
:101630000E949B0C58F3BA1762077307840795073B
:1016400020F079F4A6F50C94BD0C0EF4E0950B2E69
:10165000BA2FA02D0B01B90190010C01CA01A00104
:101660001124FF27591B99F0593F50F4503E68F15F
:101670001A16F040A22F232F342F4427585FF3CFA0
:10168000469537952795A795F0405395C9F77EF471
:101690001F16BA0B620B730B840BBAF09150A1F0BA
:1016A000FF0FBB1F661F771F881FC2F70EC0BA0F40
:1016B000621F731F841F48F4879577956795B795C8
:1016C000F7959E3F08F0B0CF9395880F08F09927C3
:1016D000EE0F9795879508950E944F0C08F481E0CE
:1016E00008950E94850B0C948A0C0E94830C58F07C
:1016F0000E947C0C40F029F45F3F29F00C94730C9D
:1017000051110C94BE0C0C94790C0E949B0C68F344
:101710009923B1F3552391F3951B550BBB27AA27AA
:1017200062177307840738F09F5F5F4F220F331FE4
:10173000441FAA1FA9F335D00E2E3AF0E0E832D0AC
:1017400091505040E695001CCAF72BD0FE2F29D0AF
:10175000660F771F881FBB1F261737074807AB0781
:10176000B0E809F0BB0B802DBF01FF2793585F4FF6
:101770003AF09E3F510578F00C94730C0C94BE0C1B
:101780005F3FE4F3983ED4F3869577956795B795D8
:10179000F7959F5FC9F7880F911D9695879597F9E3
:1017A0000895E1E0660F771F881FBB1F621773075C
:1017B0008407BA0720F0621B730B840BBA0BEE1F71
:1017C00088F7E09508950E94A30C88F09F5798F041
:1017D000B92F9927B751B0F0E1F0660F771F881F36
:1017E000991F1AF0BA95C9F714C0B13091F00E9450
:1017F000BD0CB1E008950C94BD0C672F782F88279D
:10180000B85F39F0B93FCCF3869577956795B39576
:10181000D9F73EF490958095709561957F4F8F4FE5
:101820009F4F0895E89409C097FB3EF490958095EA
:10183000709561957F4F8F4F9F4F9923A9F0F92F96
:1018400096E9BB279395F695879577956795B79514
:10185000F111F8CFFAF4BB0F11F460FF1BC06F5FFA
:101860007F4F8F4F9F4F16C0882311F096E911C00C
:10187000772321F09EE8872F762F05C0662371F02D
:1018800096E8862F70E060E02AF09A95660F771F41
:10189000881FDAF7880F9695879597F90895990F1D
:1018A0000008550FAA0BE0E8FEEF16161706E8072A
:1018B000F907C0F012161306E407F50798F0621B4B
:1018C000730B840B950B39F40A2661F0232B242B20
:1018D000252B21F408950A2609F4A140A6958FEF3F
:1018E000811D811D089597F99F6780E870E060E091
:1018F00008959FEF80EC089500240A9416161706A9
:1019000018060906089500240A94121613061406F0
:1019100005060895092E0394000C11F4882352F053
:10192000BB0F40F4BF2B11F460FF04C06F5F7F4F0B
:101930008F4F9F4F089557FD9058440F551F59F0F2
:101940005F3F71F04795880F97FB991F61F09F3FAC
:1019500079F087950895121613061406551FF2CFD5
:101960004695F1DF08C0161617061806991FF1CF25
:1019700086957105610508940895E894BB2766274C
:101980007727CB0197F908950E944F0C08F48FEF49
:1019900008950E94DC0C0C948A0C0E947C0C38F098
:1019A0000E94830C20F0952311F00C94730C0C947E
:1019B000790C11240C94BE0C0E949B0C70F3959F23
:1019C000C1F3950F50E0551F629FF001729FBB2736
:1019D000F00DB11D639FAA27F00DB11DAA1F649FD2
:1019E0006627B00DA11D661F829F2227B00DA11D85
:1019F000621F739FB00DA11D621F839FA00D611D0B
:101A0000221F749F3327A00D611D231F849F600D2B
:101A1000211D822F762F6A2F11249F5750409AF054
:101A2000F1F088234AF0EE0FFF1FBB1F661F771FE0
:101A3000881F91505040A9F79E3F510580F00C94AB
:101A4000730C0C94BE0C5F3FE4F3983ED4F3869580
:101A500077956795B795F795E7959F5FC1F7FE2B4B
:101A6000880F911D9695879597F908950E944F0CC0
:101A7000880B990B089597FB072E16F4009407D056
:101A800077FD09D00E94900D07FC05D03EF490959B
:101A900081959F4F0895709561957F4F0895A1E2BC
:101AA0001A2EAA1BBB1BFD010DC0AA1FBB1FEE1FD8
:101AB000FF1FA217B307E407F50720F0A21BB30B23
:101AC000E40BF50B661F771F881F991F1A9469F79F
:101AD00060957095809590959B01AC01BD01CF01FB
:101AE0000895052E97FB1EF400940E94880D57FD63
:101AF00007D00E944F0D07FC03D04EF40C94880DC4
:101B000050954095309521953F4F4F4F5F4F089529
:101B100090958095709561957F4F8F4F9F4F089559
:101B2000AA1BBB1B51E107C0AA1FBB1FA617B70703
:101B300010F0A61BB70B881F991F5A95A9F780951F
:101B40009095BC01CD010895EE0FFF1F0590F49113
:101B5000E02D0994F894FFCF0000400014005400D9
:101B6000000000002E018E00BB007B01EC00CA00CB
:101B7000DE00000000002D0300034304D602F9023A
:101B8000E602D70200000000B9048E0043046F0291
:101B90006E616E00696E66006F76660057617465EF
:101BA00072204C6576656C3A200025000D0A0052C3
:101BB0006573657276656420537461727465640040
:101BC000506C6561736520576169742100203A206B
:101BD0000054616E6B2046756C6C21004C45564577
:101BE0004C200020252020202020202000636D3A5A
:061BF000200020636D00DF
:107E0000112484B714BE81FFF0D085E080938100F7
:107E100082E08093C00088E18093C10086E0809377
:107E2000C20080E18093C4008EE0C9D0259A86E02C
:107E300020E33CEF91E0309385002093840096BBD3
:107E4000B09BFECF1D9AA8958150A9F7CC24DD24C4
:107E500088248394B5E0AB2EA1E19A2EF3E0BF2EE7
:107E6000A2D0813461F49FD0082FAFD0023811F036
:107E7000013811F484E001C083E08DD089C08234E0
:107E800011F484E103C0853419F485E0A6D080C0E4
:107E9000853579F488D0E82EFF2485D0082F10E0AE
:107EA000102F00270E291F29000F111F8ED06801E7
:107EB0006FC0863521F484E090D080E0DECF843638
:107EC00009F040C070D06FD0082F6DD080E0C81688
:107ED00080E7D80618F4F601B7BEE895C0E0D1E017
:107EE00062D089930C17E1F7F0E0CF16F0E7DF06D8
:107EF00018F0F601B7BEE89568D007B600FCFDCFD4
:107F0000A601A0E0B1E02C9130E011968C91119780
:107F100090E0982F8827822B932B1296FA010C0160
:107F200087BEE89511244E5F5F4FF1E0A038BF0790
:107F300051F7F601A7BEE89507B600FCFDCF97BE46
:107F4000E89526C08437B1F42ED02DD0F82E2BD052
:107F50003CD0F601EF2C8F010F5F1F4F84911BD097
:107F6000EA94F801C1F70894C11CD11CFA94CF0C13
:107F7000D11C0EC0853739F428D08EE10CD085E9AC
:107F80000AD08FE07ACF813511F488E018D01DD067
:107F900080E101D065CF982F8091C00085FFFCCF94
:107FA0009093C60008958091C00087FFFCCF809118
:107FB000C00084FD01C0A8958091C6000895E0E648
:107FC000F0E098E1908380830895EDDF803219F02E
:107FD00088E0F5DFFFCF84E1DECF1F93182FE3DFCA
:107FE0001150E9F7F2DF1F91089580E0E8DFEE27F6
:047FF000FF270994CA
:027FFE00040479
:00000001FF
